S01200004F7064726163687434412E7372656368
S11300000C9434000C9451000C9451000C94510045
S11300100C9451000C9451000C9451000C94510018
S11300200C9451000C9451000C9451000C94510008
S11300300C9451000C9451000C9451000C945100F8
S11300400C9451000C9451000C9451000C945100E8
S11300500C9451000C9451000C9451000C945100D8
S11300600C9451000C94510011241FBECFEFD8E022
S1130070DEBFCDBF11E0A0E0B1E0E6E2F2E002C0F5
S113008005900D92A430B107D9F721E0A4E0B1E0C6
S113009001C01D92A430B207E1F70E9499000C94AC
S11300A011010C9400001092C00088E18093C100FB
S11300B086E08093C2001092C50087E68093C40056
S11300C008959091C00095FFFCCF8093C6000895D9
S11300D00F931F93CF938C01C0E003C00E94610073
S11300E0CF5FF801EC0FF11D80818111F7CFCF9123
S11300F01F910F910895CF93DF93CDB7DEB7289763
S11301000FB6F894DEBF0FBECDBF4AE050E0BE018B
S11301106F5F7F4F0E94D100CE0101960E9468005C
S113012028960FB6F894DEBF0FBECDBFDF91CF91F6
S113013008950E94530080E184B9ECE7F0E08081E7
S113014084648083EAE7F0E0808187608083808133
S113015080688083EAE7F0E0808180658083809115
S11301607A0084FFFCCF8091780090917900893CDB
S1130170910520F025B1206125B903C025B12F7E5A
S113018025B90E947B0080E091E00E9468002FEF77
S113019084E39CE0215080409040E1F700C00000DF
S11301A0D9CF4532510520F4423010F00C94DC00D4
S11301B0FB011082CB010895BB274A3031F4992307
S11301C022F4BDE2909581959F4F0C94E800BB27E3
S11301D0FB015527AA27880F991FAA1FA41710F0FF
S11301E0A41B83955051B9F7A05DAA3308F0A95D0B
S11301F0A193009779F7B111B1931192CB010C94AB
S11302000101DC01FC01672F71917723E1F732973B
S113021004C07C916D9370836291AE17BF07C8F3DD
S10902200895F894FFCFDD
S10702260A0D0000B9
S9030000FC
