:100000000C9434000C943E000C943E000C943E0082
:100010000C943E000C943E000C943E000C943E0068
:100020000C943E000C943E000C943E000C943E0058
:100030000C943E000C943E000C943E000C943E0048
:100040000C943E000C943E000C943E000C943E0038
:100050000C943E000C943E000C943E000C943E0028
:100060000C943E000C943E0011241FBECFEFD8E04C
:10007000DEBFCDBF0E9477000C94CC000C94000032
:100080009091C00095FFFCCF8093C60008950F9318
:100090001F93CF938C01C0E003C00E944000CF5F4C
:1000A000F801EC0FF11D80818111F7CFCF911F91E5
:1000B0000F910895CF93DF93CDB7DEB728970FB692
:1000C000F894DEBF0FBECDBF4AE0BE016F5F7F4F29
:1000D0000E949700CE0101960E94470028960FB615
:1000E000F894DEBF0FBECDBFDF91CF91089510927F
:1000F000C00088E08093C10086E08093C200109227
:10010000C50087E68093C40082ED94E00E945A0007
:1001100080E00AC02FEF34E39CE021503040904053
:10012000E1F700C000008F5F8430A0F3EDCFBB2764
:100130004A3031F4992322F4BDE2909581959F4F86
:100140000C94A300BB27FB015527AA27880F991FF2
:10015000AA1FA41710F0A41B83955051B9F7A05DF6
:10016000AA3308F0A95DA193009779F7B111B19373
:100170001192CB010C94BC00DC01FC01672F719142
:100180007723E1F7329704C07C916D93708362917D
:0C019000AE17BF07C8F30895F894FFCF26
:00000001FF
