:100000000C9434000C943E000C943E000C943E0082
:100010000C943E000C943E000C943E000C943E0068
:100020000C943E000C943E000C943E000C943E0058
:100030000C943E000C943E000C943E000C943E0048
:100040000C943E000C943E000C943E000C943E0038
:100050000C943E000C943E000C943E000C943E0028
:100060000C943E000C943E0011241FBECFEFD8E04C
:10007000DEBFCDBF0E944F000C945A000C940000CC
:1000800080E00AC02FE738E391E0215030409040F3
:10009000E1F700C000008F5F8A30A0F308958FEF72
:1000A0008AB9C0E804C00E944000CBB9C695C1110E
:0800B000FACFF7CFF894FFCF5F
:00000001FF
