S01200004F7064726163687435432E7372656365
S11300000C9434000C943E000C943E000C943E007E
S11300100C943E000C943E000C943E000C943E0064
S11300200C943E000C943E000C943E000C943E0054
S11300300C943E000C943E000C943E000C943E0044
S11300400C943E000C943E000C943E000C943E0034
S11300500C943E000C943E000C943E000C943E0024
S11300600C943E000C943E0011241FBECFEFD8E048
S1130070DEBFCDBF0E94E5000C9454020C94000036
S113008084B1826084B9E0E8F0E08081806180839B
S1130090E1E8F0E08081896080831092850010920D
S11300A08400089520E030E008C0EFE8F1E03197E3
S11300B0F1F700C000002F5F3F4F28173907A8F35E
S11300C008950F931F93CF93DF938A019B01AC0193
S11300D00E94F60020E030E040E85FE30E94F50073
S11300E09B01AC0160E074E284E79BE40E9462013E
S11300F00E94D401C8E8D0E079836883C8010E94D3
S1130100520019821882DF91CF911F910F910895A7
S113011048E057E060E070E084EC93E40E94610002
S113012080EB94E00E94520048E057E060E070E009
S113013084EC93E40E94610080EB94E00E945200FE
S113014048E057E060E070E084EC93E40E946100D2
S113015080EB94E00E94520040E25CE164EA70E9C2
S11301608BE993E40E94610080E699E00E945200CA
S113017048E057E061E77DE98EEA93E40E9461007C
S113018080EB94E00E94520048E057E061E77DE98B
S11301908EEA93E40E94610080EB94E00E94520096
S11301A048E057E061E77DE98EEA93E40E9461004C
S11301B088E097E00E94520048E057E06BE774ED56
S11301C082E993E40E94610008950E944000C0E027
S11301D0D0E007C00E94880080ED97E00E945200A2
S11301E02196C330D105B4F3FFCF5058BB27AA27BB
S11301F00E940D010C941A020E940C0238F00E9415
S1130200130220F039F49F3F19F426F40C940902E8
S11302100EF4E095E7FB0C940302E92F0E942B02F5
S113022058F3BA17620773078407950720F079F427
S1130230A6F50C944D020EF4E0950B2EBA2FA02DCA
S11302400B01B90190010C01CA01A0011124FF277F
S1130250591B99F0593F50F4503E68F11A16F0407A
S1130260A22F232F342F4427585FF3CF4695379579
S11302702795A795F0405395C9F77EF41F16BA0B3E
S1130280620B730B840BBAF09150A1F0FF0FBB1FEC
S1130290661F771F881FC2F70EC0BA0F621F731F35
S11302A0841F48F4879577956795B795F7959E3F92
S11302B008F0B0CF9395880F08F09927EE0F979523
S11302C0879508950E9476010C941A020E941302E5
S11302D058F00E940C0240F029F45F3F29F00C947E
S11302E0030251110C944E020C9409020E942B0239
S11302F068F39923B1F3552391F3951B550BBB2751
S1130300AA2762177307840738F09F5F5F4F220F95
S1130310331F441FAA1FA9F335D00E2E3AF0E0E88C
S113032032D091505040E695001CCAF72BD0FE2FD6
S113033029D0660F771F881FBB1F2617370748076A
S1130340AB07B0E809F0BB0B802DBF01FF27935822
S11303505F4F3AF09E3F510578F00C9403020C94E1
S11303604E025F3FE4F3983ED4F386957795679504
S1130370B795F7959F5FC9F7880F911D9695879557
S113038097F90895E1E0660F771F881FBB1F621776
S113039073078407BA0720F0621B730B840BBA0B34
S11303A0EE1F88F7E09508950E94330288F09F5766
S11303B098F0B92F9927B751B0F0E1F0660F771F85
S11303C0881F991F1AF0BA95C9F714C0B13091F07B
S11303D00E944D02B1E008950C944D02672F782FCE
S11303E08827B85F39F0B93FCCF386957795679540
S11303F0B395D9F73EF490958095709561957F4FAC
S11304008F4F9F4F089597F99F6780E870E060E0F1
S113041008959FEF80EC089500240A941616170699
S113042018060906089500240A94121613061406E1
S113043005060895092E0394000C11F4882352F044
S1130440BB0F40F4BF2B11F460FF04C06F5F7F4FFC
S11304508F4F9F4F089557FD9058440F551F59F0E3
S11304605F3F71F04795880F97FB991F61F09F3F9D
S113047079F087950895121613061406551FF2CFC6
S11304804695F1DF08C0161617061806991FF1CF16
S113049086957105610508940895E894BB2766273D
S10F04A07727CB0197F90895F894FFCF5B
S9030000FC
