:100000000C9434000C943E000C943E000C943E0082
:100010000C943E000C943E000C943E000C943E0068
:100020000C943E000C943E000C943E000C943E0058
:100030000C943E000C943E000C943E000C943E0048
:100040000C943E000C943E000C943E000C943E0038
:100050000C943E000C943E000C943E000C943E0028
:100060000C943E000C943E0011241FBECFEFD8E04C
:10007000DEBFCDBF0E9440000C946E000C940000C7
:1000800084E084B980E18093800089E080938100DE
:100090008AE69AE690938900809388002FEF87EA9A
:1000A00091E6215080409040E1F700C0000015B873
:1000B0002FEF87EA91E6215080409040E1F700C0A1
:1000C00000008FEF85B92FEF87EA91E6215080403D
:1000D0009040E1F700C0000015B8FFCFF894FFCFC3
:00000001FF
