:100000000C9434000C943E000C943E000C943E0082
:100010000C943E000C943E000C943E000C943E0068
:100020000C943E000C943E000C943E000C943E0058
:100030000C943E000C943E000C943E000C943E0048
:100040000C943E000C943E000C943E000C943E0038
:100050000C943E000C943E000C943E000C943E0028
:100060000C943E000C943E0011241FBECFEFD8E04C
:10007000DEBFCDBF0E9485000C94ED000C94000003
:1000800088E08AB983E28093B00081E08093B10078
:10009000089582E084B983E8809380008BE08093A8
:1000A000810080E092E090938900809388008FEF38
:1000B00093E090938700809386000895ECE7F0E04A
:1000C000808184648083EAE7F0E0808187608083B8
:1000D00080818068808308958093B4000895ECE760
:1000E000F0E09081907F90839081892B8083EAE774
:1000F000F0E080818065808380917A0084FFFCCF6E
:10010000809178009091790008950E9449000E94A2
:1001100040000E945E0085E00E946F009C01AFEFEE
:10012000B0E00E94BC002FEF33E040E050E00E94BE
:100130009D00822F0E946C00EECF052E97FB1EF4CF
:1001400000940E94B40057FD07D00E94CB0007FC2A
:1001500003D04EF40C94B400509540953095219501
:100160003F4F4F4F5F4F08959095809570956195E3
:100170007F4F8F4F9F4F0895A29FB001B39FC00143
:10018000A39F700D811D1124911DB29F700D811DC3
:100190001124911D0895A1E21A2EAA1BBB1BFD017B
:1001A0000DC0AA1FBB1FEE1FFF1FA217B307E40756
:1001B000F50720F0A21BB30BE40BF50B661F771FAE
:1001C000881F991F1A9469F760957095809590958E
:0E01D0009B01AC01BD01CF010895F894FFCF53
:00000001FF
