:100000000C949D000C94BA000C94BA000C94BA00A5
:100010000C94BA000C94BA000C94BA000C94BA0078
:100020000C94BA000C9446030C94BA000C94BA00D9
:100030000C94BA000C94BA000C94BA000C94BA0058
:100040000C94BA000C94BA000C94BA000C94BA0048
:100050000C94BA000C94BA000C94BA000C94BA0038
:100060000C94BA000C94CC030C94BA000C94BA0013
:100070000C94BA000C94BA000C94BA000C94BA0018
:100080000C94BA000C94BA000C94BA000C94BA0008
:100090000C94BA000C94BA000C94BA000C94BA00F8
:1000A0000C94BA000C94BA000C94BA00F103FA0351
:1000B00003040C0450045004500450045004500431
:1000C00050045004500450045004500419045004C7
:1000D000500434045004500450041D04EB03500435
:1000E0003804500450045004EE03500450045004EB
:1000F00030044B04500450041504500450045004C0
:100100005004500450045004500450041904500486
:10011000500434045004500450041D04EB035004F4
:100120003804500450045004EE03500450045004AA
:1001300030044B0450045004150411241FBECFEFAB
:10014000DAE0DEBFCDBF11E0A0E0B1E0EEEDFCE013
:1001500002C005900D92A036B107D9F721E0A0E6C4
:10016000B1E001C01D92AF36B207E1F70E9463040F
:100170000C946D060C94000020E624B923EA209329
:10018000800029E02093810090938900809388006B
:1001900090938B0080938A00089580910201909142
:1001A00003019093890080938800809102019091CF
:1001B000030190938B0080938A0008951092890028
:1001C0001092880010928B0010928A000895CF93AD
:1001D000C82F0E94CD00C33039F485B1826085B943
:1001E00085B18B7F85B906C085B1846085B985B13D
:1001F0008D7F85B9CF910895CF93C82F0E94CD00F0
:10020000C13021F485B1866085B903C085B1897F8D
:1002100085B9CF9108958BB183608BB988E48093C1
:10022000B800ECEBF0E080818460808308958091D9
:10023000BC008823E4F7089584EA8093BC000E9400
:100240001701089584E98093BC008091BC0084FD6F
:10025000FCCF089584E88093BC000E941701809130
:10026000BB0008958093BB0084E88093BC000E948B
:1002700017010895CF930E941C018AE30E94320166
:1002800088E80E9432010E941C018BE30E94320127
:100290000E942A01C82F0E9422018C2FCF9108951D
:1002A000CF930E941C018AE30E94320189E80E94D8
:1002B00032010E941C018BE30E9432010E942A013C
:1002C000C82F0E9422018C2FCF910895CF930E94B6
:1002D0001C018AE30E9432018AE80E9432010E94D6
:1002E0001C018BE30E9432010E942A01C82F0E9448
:1002F00022018C2FCF910895CF930E941C018AE395
:100300000E9432018BE80E9432010E941C018BE3A3
:100310000E9432010E942A01C82F0E9422018C2FC4
:10032000CF910895CF930E941C018AE30E9432016D
:100330008CE80E9432010E941C018BE30E94320172
:100340000E942A01C82F0E9422018C2FCF9108956C
:10035000CF930E941C018AE30E9432018DE80E9423
:1003600032010E941C018BE30E9432010E942A018B
:10037000C82F0E9422018C2FCF910895CF93DF9335
:10038000D82FC62F0E941C018AE30E9432018D2FB4
:100390000E9432018C2F0E9432010E942201DF91C3
:1003A000CF9108959093CD008093CC00E9ECF0E0DC
:1003B00088E1808380818068808386E08093CA00A2
:1003C00008959091C80095FFFCCF8093CE000895CA
:1003D0000F931F93CF938C01C0E003C00E94E101F3
:1003E000CF5FF801EC0FF11D80818111F7CFCF9124
:1003F0001F910F910895CF93DF93EC018A309105FF
:1004000068F09C01ADECBCEC0E945E069695879569
:1004100096958795969587950E94FB019E01ADEC78
:10042000BCEC0E945E069695879596958795969565
:1004300087959C01220F331F880F991F880F991FE2
:10044000880F991F820F931F9E01281B390BC9012A
:10045000805D0E94E101DF91CF9108951F93CF93BA
:10046000DF936FE780E20E94BE010E943A01182FDD
:100470006FE780E20E94BE010E945001C82FD0E0C9
:10048000DC2FCC27C12B80916D0190916E01C81B90
:10049000D90B84E091E00E94E801CE010E94FB01AB
:1004A0008AE291E00E94E8016FE780E20E94BE01CB
:1004B0000E946601182F6FE780E20E94BE010E9431
:1004C0007C01C82FD0E0DC2FCC27C12B80916B01A1
:1004D00090916C01C81BD90B88E091E00E94E80163
:1004E000CE010E94FB018AE291E00E94E8016FE7E1
:1004F00080E20E94BE010E949201182F6FE780E205
:100500000E94BE010E94A801C82FD0E0DC2FCC279A
:10051000C12B8091690190916A01C81BD90B8CE0B5
:1005200091E00E94E801CE010E94FB018EE291E081
:100530000E94E8018EE291E00E94E801DF91CF91F4
:100540001F910895CF93DF93EC0180E191E00E9429
:10055000E801CE010E94FB018CE291E00E94E801DB
:1005600081E391E00E94E801609100017091010136
:10057000CE010E944406CB010E94FB018DE491E074
:100580000E94E801809100019091010101969093F1
:10059000010180930001DF91CF9108950E94A20292
:1005A0000E942E02089587B1806887B9089588B1A6
:1005B000806888B9089588B18F7788B9089584B123
:1005C000877F84B98AB18F7D8AB908958DB18B7F79
:1005D0008DB984B18F7E84B98EB184608EB985B1B6
:1005E000806185B9E8E6F0E0808181608083EBE698
:1005F000F0E08081806180838CB182FB882780F964
:100600008093610123B1207130E090E041E08217D6
:10061000930709F440E040936001089587B1806436
:1006200087B983E88093900088E0809391000895D3
:100630009C0180E487B998B1906498B9E1E9F0E051
:100640009081916090833093990020939800089551
:1006500080B38D7F80BB81B3826081BB0895809120
:100660000201909103010E94BC000E94D30287E620
:1006700090E00E94D2010E94DF020E94E6020E94E6
:100680000B010E940E030E94280308951F920F92EF
:100690000FB60F921124CF92DF92EF92FF922F9319
:1006A0003F934F935F936F937F938F939F93AF93FA
:1006B000BF93EF93FF932CB122FB222720F983B144
:1006C000807190E0622F70E041E08617970709F48F
:1006D00040E030916101842F832790E050916001C8
:1006E000622F6527861B9109C0906301D090640139
:1006F000E0906501F0906601092E000CAA0BBB0B7F
:100700008C0D9D1DAE1DBF1D8093630190936401F0
:10071000A0936501B09366013227451731F033236A
:1007200021F081E08093620102C010926201409347
:100730006001209361016091630170916401809177
:100740006501909166010E94490525E13EE846E970
:1007500054E40E94A80422E138E747EB51E40E94E8
:10076000D7050E941A057093680160936701FF9195
:10077000EF91BF91AF919F918F917F916F915F9119
:100780004F913F912F91FF90EF90DF90CF900F907E
:100790000FBE0F901F9018951F920F920FB60F92D9
:1007A00011242F933F934F935F936F937F938F9376
:1007B0009F93AF93BF93EF93FF93E091CE008E2F63
:1007C00090E0FC01F197E734F10508F069C0EA5ABE
:1007D000FF4F0C9458060E94D70264C00E94DB02AF
:1007E00061C088EC90E090930301809302010E9425
:1007F000CD0058C084EF91E09093030180930201F3
:100800000E94CD004FC080E293E09093030180935B
:1008100002010E94CD0046C08FEF93E09093030148
:10082000809302010E94CD003DC080E00E94FC0048
:1008300039C082E00E94E70035C0809102019091AA
:100840000301909389008093880080910201909128
:1008500003018C52914090938B0080938A0022C0B8
:1008600081E00E94FC001EC083E00E94E7001AC0E5
:1008700080910201909103018C52914090938900E4
:1008800080938800809102019091030190938B00E6
:1008900080938A0007C084E591E00E94E80102C0CD
:1008A0000E94DE00FF91EF91BF91AF919F918F91D8
:1008B0007F916F915F914F913F912F910F900FBE5C
:1008C0000F901F9018950E942F030E94DE006091E8
:1008D00063017091640180916501909166010E94AD
:1008E000490525E13EE846E954E40E94A80422E1D6
:1008F00038E747EB51E40E94D7050E941A05709330
:1009000068016093670178948CE390E00E9418037B
:1009100079990EC081E00E94FC002FEF87EA91E6F2
:10092000215080409040E1F700C000000E94DE00AE
:100930002FEF83ED90E3215080409040E1F700C01D
:10094000000080916701909168010E94CE02DCCF87
:100950000E94BC040C949D050E94960558F00E94CC
:100960008F0540F029F45F3F29F00C948605511162
:100970000C94D1050C948C050E94AE0568F3992364
:10098000B1F3552391F3951B550BBB27AA2762178B
:100990007307840738F09F5F5F4F220F331F441F98
:1009A000AA1FA9F335D00E2E3AF0E0E832D09150CC
:1009B0005040E695001CCAF72BD0FE2F29D0660FB9
:1009C000771F881FBB1F261737074807AB07B0E8FC
:1009D00009F0BB0B802DBF01FF2793585F4F3AF002
:1009E0009E3F510578F00C9486050C94D1055F3F2D
:1009F000E4F3983ED4F3869577956795B795F79588
:100A00009F5FC9F7880F911D9695879597F908956F
:100A1000E1E0660F771F881FBB1F6217730784070B
:100A2000BA0720F0621B730B840BBA0BEE1F88F71A
:100A3000E09508950E94B60588F09F5798F0B92F69
:100A40009927B751B0F0E1F0660F771F881F991F03
:100A50001AF0BA95C9F714C0B13091F00E94D005D0
:100A6000B1E008950C94D005672F782F8827B85FE0
:100A700039F0B93FCCF3869577956795B395D9F75B
:100A80003EF490958095709561957F4F8F4F9F4F65
:100A90000895E89409C097FB3EF490958095709571
:100AA00061957F4F8F4F9F4F9923A9F0F92F96E9BA
:100AB000BB279395F695879577956795B795F1112F
:100AC000F8CFFAF4BB0F11F460FF1BC06F5F7F4FCC
:100AD0008F4F9F4F16C0882311F096E911C07723DE
:100AE00021F09EE8872F762F05C0662371F096E8E7
:100AF000862F70E060E02AF09A95660F771F881FB6
:100B0000DAF7880F9695879597F9089597F99F6773
:100B100080E870E060E008959FEF80EC0895002485
:100B20000A941616170618060906089500240A9452
:100B300012161306140605060895092E0394000CD8
:100B400011F4882352F0BB0F40F4BF2B11F460FF67
:100B500004C06F5F7F4F8F4F9F4F089557FD905890
:100B6000440F551F59F05F3F71F04795880F97FB71
:100B7000991F61F09F3F79F087950895121613062B
:100B80001406551FF2CF4695F1DF08C0161617065A
:100B90001806991FF1CF869571056105089408958F
:100BA000E894BB2766277727CB0197F908950E9421
:100BB000EA050C949D050E948F0538F00E94960569
:100BC00020F0952311F00C9486050C948C051124CB
:100BD0000C94D1050E94AE0570F3959FC1F3950F5B
:100BE00050E0551F629FF001729FBB27F00DB11DB1
:100BF000639FAA27F00DB11DAA1F649F6627B00D41
:100C0000A11D661F829F2227B00DA11D621F739F29
:100C1000B00DA11D621F839FA00D611D221F749F37
:100C20003327A00D611D231F849F600D211D822F7E
:100C3000762F6A2F11249F5750409AF0F1F08823A5
:100C40004AF0EE0FFF1FBB1F661F771F881F9150D2
:100C50005040A9F79E3F510580F00C9486050C94F6
:100C6000D1055F3FE4F3983ED4F386957795679579
:100C7000B795F795E7959F5FC1F7FE2B880F911DFC
:100C80009695879597F90895AA1BBB1B51E107C05C
:100C9000AA1FBB1FA617B70710F0A61BB70B881F0C
:100CA000991F5A95A9F780959095BC01CD0108959B
:100CB000EE0FFF1F0590F491E02D0994A29FB00163
:100CC000B39FC001A39F700D811D1124911DB29F80
:0E0CD000700D811D1124911D0895F894FFCF21
:100CDE000100F401583A2000593A20005A3A2000F7
:100CEE00446520616667656C65676465206166733F
:100CFE0074616E642069733A20202000636D0A0DC2
:100D0E000044652067656D696464656C6465207375
:100D1E006E656C686569642069733A2000636D2F97
:100D2E00730A0D00546F6574546F65740A0D0000DC
:00000001FF
