S01A000052696A64656E2075706C6F616420746573742E7372656329
S11300000C9456000C946B000C946B000C946B00D5
S11300100C946B000C946B000C946B000C946B00B0
S11300200C946B000C946B000C946B000C946B00A0
S11300300C946B000C946B000C946B000C946B0090
S11300400C946B000C946B000C946B000C946B0080
S11300500C946B000C946B000C946B000C946B0070
S11300600C946B000C946B000C946B000C946B0060
S11300700C946B000C946B000C946B000C946B0050
S11300800C946B000C946B000C946B000C946B0040
S11300900C946B000C946B000C946B000C946B0030
S11300A00C946B000C946B000C946B0011241FBE19
S11300B0CFEFDAE0DEBFCDBF11E0A0E0B1E0E4E6CF
S11300C0F2E002C005900D92A230B107D9F70E9468
S11300D0C9000C9430010C94000090E694B993EAA2
S11300E09093800099E09093810090E09093890030
S11300F08093880090938B0080938A00089585B143
S1130100846085B985B18D7F85B9089585B1826094
S113011085B985B18B7F85B908958091000190914F
S1130120010190938900809388008091000190914F
S1130130010190938B0080938A00089510928900A6
S11301401092880010928B0010928A0008958130DA
S113015021F485B1866085B9089585B1897F85B913
S1130160089584B1806884B9089585B1806885B99B
S1130170089588E084B90895809100010E946D007B
S11301800E94B1000E94B9000E947F000E94860074
S113019008950E94BC000E948D0080E00E94A70088
S11301A00E94B5002FEF89E698E1215080409040ED
S11301B0E1F700C000000E949E002FEF89E698E15D
S11301C0215080409040E1F700C000000E948D0063
S11301D081E00E94A7002FEF89E698E1215080403A
S11301E09040E1F700C000000E949E002FEF89E6D6
S11301F098E1215080409040E1F700C000000E9447
S11302008D000E9486002FEF89E698E121508040FE
S11302109040E1F700C000000E949E002FEF89E6A5
S113022098E1215080409040E1F700C000000E9416
S11302308D000E947F002FEF89E698E121508040D5
S11302409040E1F700C000000E949E002FEF89E675
S113025098E1215080409040E1F700C000009BCF1E
S1070260F894FFCF3C
S1050264F4019F
S9030000FC
