S01200006F7064726163687431622E737265632A
S11300000C9434000C943E000C943E000C943E007E
S11300100C943E000C943E000C943E000C943E0064
S11300200C943E000C943E000C943E000C943E0054
S11300300C943E000C943E000C943E000C943E0044
S11300400C943E000C943E000C943E000C943E0034
S11300500C943E000C943E000C943E000C943E0024
S11300600C943E000C943E0011241FBECFEFD8E048
S1130070DEBFCDBF0E9484000C949B000C94000052
S11300808FEF8AB98BB984B1836084B985B18360F9
S113009085B908959BB1482F50E021E030E0082E47
S11300A002C0220F331F0A94E2F7292B2BB98830A0
S11300B060F025B14850510981E090E002C0880FFA
S11300C0991F4A95E2F7822B85B908959BB1482F71
S11300D050E021E030E0082E02C0220F331F0A94C2
S11300E0E2F7209529232BB9883068F025B14850D0
S11300F0510981E090E002C0880F991F4A95E2F708
S11301008095822385B908950E944000C0E02FE3C2
S113011082E49FE0215080409040E1F700C000005D
S11301208C2F0E946600CF5FCA3009F4C0E08C2F88
S10D01300E944A00ECCFF894FFCFC0
S9030000FC
