:100000000C9434000C943E000C943E000C943E0082
:100010000C943E000C943E000C943E000C943E0068
:100020000C943E000C943E000C943E000C943E0058
:100030000C943E000C943E000C943E000C943E0048
:100040000C943E000C943E000C943E000C943E0038
:100050000C943E000C943E000C943E000C943E0028
:100060000C943E000C943E0011241FBECFEFD8E04C
:10007000DEBFCDBF0E9462000C9477000C9400009C
:100080008AB181608AB98BB181608BB908951F995B
:100090000BC087EA91E60197F1F700C000001A99BA
:1000A00006C081E090E0089580E090E0089580E04F
:1000B00090E008958BB181608BB908958BB18E7FEC
:1000C0008BB908950E944000C0E00E944700892B30
:1000D000E1F3CC2331F085E090E00E945E00C0E0C7
:1000E000F4CF85E090E00E945A00C1E0EECFF89492
:0200F000FFCF40
:00000001FF
