:100000000C9434000C9449000C9449000C94490061
:100010000C9449000C9449000C9449000C9449003C
:100020000C9449000C9449000C9449000C9449002C
:100030000C9449000C9449000C9449000C9449001C
:100040000C9449000C9449000C9449000C9449000C
:100050000C9449000C9449000C9449000C944900FC
:100060000C9449000C94490011241FBECFEFD8E036
:10007000DEBFCDBF11E0A0E0B1E0EEE4F2E002C0EF
:1000800005900D92A430B107D9F70E94CD000C94D1
:1000900025010C94000085E480937C0085E8809322
:1000A0007A0008951092C00088E18093C10086E034
:1000B0008093C2001092C50087E68093C400089523
:1000C0009091C00095FFFCCF8093C60008950F93D8
:1000D0001F93CF938C01C0E003C00E946000CF5FEC
:1000E000F801EC0FF11D80818111F7CFCF911F91A5
:1000F0000F910895CF93DF93CDB7DEB728970FB652
:10010000F894DEBF0FBECDBF4AE050E0BE016F5F86
:100110007F4F0E94E500CE0101960E94670028965D
:100120000FB6F894DEBF0FBECDBFDF91CF9108951B
:10013000EAE7F0E080818065808380917A0084FF27
:10014000FCCF40917800509179009A01ADECBCEC65
:100150000E94D60096958795969587959695879552
:100160009C01220F331F880F991F880F991F880F3A
:10017000991F820F931F9A01281B390BC9010895FB
:100180000E947A0080E091E00E94670083E294EF91
:100190000197F1F700C0000008950E944B000E94F3
:1001A00052000E9498000E94C000FBCFA29FB001A5
:1001B000B39FC001A39F700D811D1124911DB29F9B
:1001C000700D811D1124911D08954532510520F4B3
:1001D000423010F00C94F000FB011082CB01089526
:1001E000BB274A3031F4992322F4BDE290958195E2
:1001F0009F4F0C94FC00BB27FB015527AA27880FB3
:10020000991FAA1FA41710F0A41B83955051B9F78A
:10021000A05DAA3308F0A95DA193009779F7B11109
:10022000B1931192CB010C941501DC01FC01672FF5
:1002300071917723E1F7329704C07C916D937083BD
:0E0240006291AE17BF07C8F30895F894FFCF80
:04024E000A0D000095
:00000001FF
