S01800004164656D68616C696E67736D657465722E7372656392
S11300000C9434000C9449000C9449000C9449005D
S11300100C9449000C9449000C9449000C94490038
S11300200C9449000C9449000C9449000C94490028
S11300300C9449000C9449000C9449000C94490018
S11300400C9449000C9449000C9449000C94490008
S11300500C9449000C9449000C9449000C944900F8
S11300600C9449000C94490011241FBECFEFD8E032
S1130070DEBFCDBF11E0A0E0B1E0ECE2F8E002C0E9
S113008005900D92A831B107D9F70E94F6000C949F
S113009014040C9400004F925F926F927F92AF927F
S11300A0BF92CF92DF92EF92FF920F931F93CF9361
S11300B0DF93CDB7DEB729013A019B01AC012419C6
S11300C035094609570989899A89AB89BC89BC01D4
S11300D0CD016A197B098C099D090E947403A8014A
S11300E0970124193509460957090E948403C6015A
S11300F0B501620F731F841F951FDF91CF911F916C
S11301000F91FF90EF90DF90CF90BF90AF907F90D2
S11301106F905F904F90089585E480937C0085E80C
S113012080937A0008951092C00088E18093C10002
S113013086E08093C2001092C50087E68093C400D5
S113014008959091C00095FFFCCF8093C600089558
S11301500F931F93CF938C01C0E003C00E94A100B2
S1130160CF5FF801EC0FF11D80818111F7CFCF91A2
S11301701F910F910895CF93DF93CDB7DEB72897E2
S11301800FB6F894DEBF0FBECDBF4AE0BE016F5F6D
S11301907F4F0E94DF03CE0101960E94A80028969B
S11301A00FB6F894DEBF0FBECDBFDF91CF91089597
S11301B0EAE7F0E080818065808380917A0084FFA3
S11301C0FCCF809178009091790008950E94BB0043
S11301D080E091E00E94A8002FEF84E39CE021508E
S11301E080409040E1F700C0000008950E948C0018
S11301F00E9493000E94D800BC01990F880B990BB0
S11302000E947B0229E23CE54FE950E40E94070387
S113021020E030EC4FE754E40E94D1019B01AC0193
S113022069E27CE58FE990E40E94D10120E030E0AE
S113023040E85FE30E94640120E03CE849E357E4BE
S11302400E9407036B017C0183E091E00E94A800F7
S1130250C701B6010E944302CB010E94E600C70118
S1130260B6010E9443021F921F921F922AE52F9308
S1130270A12CB12C650110E9E12E1FE5F12E01E05E
S113028010E024EB31E940E050E00E944B000F9075
S11302900F900F900F900E947B026B017C0180E114
S11302A091E00E94A800C701B6010E944302CB015D
S11302B00E94E6002FEF84E39CE0215080409040B0
S11302C0E1F700C0000096CF5058BB27AA270E9430
S11302D07C010C94CD020E94BF0238F00E94C60239
S11302E020F039F49F3F19F426F40C94BC020EF468
S11302F0E095E7FB0C94B602E92F0E94DE0258F366
S1130300BA17620773078407950720F079F4A6F5F6
S11303100C9400030EF4E0950B2EBA2FA02D0B01C4
S1130320B90190010C01CA01A0011124FF27591B36
S113033099F0593F50F4503E68F11A16F040A22F3C
S1130340232F342F4427585FF3CF469537952795AD
S1130350A795F0405395C9F77EF41F16BA0B620BAC
S1130360730B840BBAF09150A1F0FF0FBB1F661FF3
S1130370771F881FC2F70EC0BA0F621F731F841F36
S113038048F4879577956795B795F7959E3F08F05C
S1130390B0CF9395880F08F09927EE0F979587951E
S11303A008950E94E5010C94CD020E94C60258F003
S11303B00E94BF0240F029F45F3F29F00C94B6027A
S11303C051110C9401030C94BC020E94DE0268F3E8
S11303D09923B1F3552391F3951B550BBB27AA27FA
S11303E062177307840738F09F5F5F4F220F331F34
S11303F0441FAA1FA9F335D00E2E3AF0E0E832D0FC
S113040091505040E695001CCAF72BD0FE2F29D0FE
S1130410660F771F881FBB1F261737074807AB07D0
S1130420B0E809F0BB0B802DBF01FF2793585F4F45
S11304303AF09E3F510578F00C94B6020C940103F7
S11304405F3FE4F3983ED4F3869577956795B79527
S1130450F7959F5FC9F7880F911D9695879597F932
S11304600895E1E0660F771F881FBB1F62177307AB
S11304708407BA0720F0621B730B840BBA0BEE1FC0
S113048088F7E09508950E944A026894B1110C948B
S1130490010308950E94E60288F09F5798F0B92F4F
S11304A09927B751B0F0E1F0660F771F881F991FA5
S11304B01AF0BA95C9F714C0B13091F00E94000344
S11304C0B1E008950C940003672F782F8827B85F54
S11304D039F0B93FCCF3869577956795B395D9F7FD
S11304E03EF490958095709561957F4F8F4F9F4F07
S11304F00895E89409C097FB3EF490958095709513
S113050061957F4F8F4F9F4F9923A9F0F92F96E95B
S1130510BB279395F695879577956795B795F111D0
S1130520F8CFFAF4BB0F11F460FF1BC06F5F7F4F6D
S11305308F4F9F4F16C0882311F096E911C077237F
S113054021F09EE8872F762F05C0662371F096E888
S1130550862F70E060E02AF09A95660F771F881F57
S1130560DAF7880F9695879597F9089597F99F6715
S113057080E870E060E008959FEF80EC0895002427
S11305800A941616170618060906089500240A94F4
S113059012161306140605060895092E0394000C7A
S11305A011F4882352F0BB0F40F4BF2B11F460FF09
S11305B004C06F5F7F4F8F4F9F4F089557FD905832
S11305C0440F551F59F05F3F71F04795880F97FB13
S11305D0991F61F09F3F79F08795089512161306CD
S11305E01406551FF2CF4695F1DF08C016161706FC
S11305F01806991FF1CF8695710561050894089531
S1130600E894BB2766277727CB0197F908950E94C2
S11306101A030C94CD020E94BF0238F00E94C60255
S113062020F0952311F00C94B6020C94BC02112412
S11306300C9401030E94DE0270F3959FC1F3950FA1
S113064050E0551F629FF001729FBB27F00DB11D52
S1130650639FAA27F00DB11DAA1F649F6627B00DE2
S1130660A11D661F829F2227B00DA11D621F739FCB
S1130670B00DA11D621F839FA00D611D221F749FD9
S11306803327A00D611D231F849F600D211D822F20
S1130690762F6A2F11249F5750409AF0F1F0882347
S11306A04AF0EE0FFF1FBB1F661F771F881F915074
S11306B05040A9F79E3F510580F00C94B6020C946B
S11306C001035F3FE4F3983ED4F3869577956795ED
S11306D0B795F795E7959F5FC1F7FE2B880F911D9E
S11306E09695879597F90895DB018F939F930E94C0
S11306F0A303BF91AF91A29F800D911DA39F900D65
S1130700B29F900D11240895052E97FB1EF40094BA
S11307100E949B0357FD07D00E94AE0307FC03D041
S11307204EF40C949B0350954095309521953F4F82
S11307304F4F5F4F089590958095709561957F4FC9
S11307408F4F9F4F08950E94D003A59F900DB49F93
S1130750900DA49F800D911D11240895A1E21A2EDD
S1130760AA1BBB1BFD010DC0AA1FBB1FEE1FFF1F51
S1130770A217B307E407F50720F0A21BB30BE40BA1
S1130780F50B661F771F881F991F1A9469F76095E8
S11307907095809590959B01AC01BD01CF010895A2
S11307A0A29FB001B39FC001A39F700D811D1124AE
S11307B0911DB29F700D811D1124911D0895BB27B9
S11307C04A3031F4992322F4BDE2909581959F4FEC
S11307D00C94EB03BB27FB015527AA27880F991F0D
S11307E0AA1FA41710F0A41B83955051B9F7A05D5C
S11307F0AA3308F0A95DA193009779F7B111B193D9
S11308001192CB010C940404DC01FC01672F71915B
S11308107723E1F7329704C07C916D9370836291E2
S10F0820AE17BF07C8F30895F894FFCF8B
S113082C0A0D00526573697374616E63653A200036
S10B083C42656E643A200000DD
S9030000FC
