:100000000C9434000C9451000C946E000C9451002C
:100010000C9451000C9451000C9451000C9451001C
:100020000C9451000C9451000C9451000C9451000C
:100030000C9451000C9451000C9451000C945100FC
:100040000C9451000C9451000C9490000C945100AD
:100050000C9451000C9451000C9451000C945100DC
:100060000C9451000C94510011241FBECFEFD8E026
:10007000DEBFCDBF11E0A0E0B1E0E4E1F2E002C0FC
:1000800005900D92A230B107D9F721E0A2E0B1E0CE
:1000900001C01D92A530B207E1F70E94F8000C9450
:1000A00008010C9400001092C00088ED8093C100FC
:1000B00086E08093C2001092C50087E68093C4005A
:1000C00008958AB1877F8AB98BB188608BB988E03F
:1000D0008093690082E08DBB789408951F920F92FF
:1000E0000FB60F9211242F938F939F932FE788E3DE
:1000F00091E0215080409040E1F700C000004B9912
:1001000007C09091020181E0911180E0809302018B
:100110009F918F912F910F900FBE0F901F90189568
:100120001F920F920FB60F9211248F938091C600E9
:100130008093030180910301803348F08091030193
:100140008A3328F4809103018053809300018091C9
:100150000301813448F080910301873428F48091B1
:10016000030187538093000180910301813648F099
:1001700080910301873628F480910301875380938F
:1001800000018F910F900FBE0F901F9018958091D6
:100190000001882349F080910201882329F0809191
:1001A000000181508093000108958091000185B97C
:1001B0000895809102018823D1F085B1806185B9CD
:1001C0000E94C7002FEF89E698E1215080409040BF
:1001D000E1F700C0000085B18F7E85B92FEF89E679
:1001E00098E1215080409040E1F700C00000089560
:1001F00084B18F6184B90E9461000E9453000E9403
:10020000D500809100018823D1F30E94D900F7CF57
:04021000F894FFCF90
:020214000F00D9
:00000001FF
