S01400004F70647261636874203541422E7372656303
S11300000C9434000C9446000C9446000C94460066
S11300100C9446000C9446000C9446000C94460044
S11300200C9446000C9446000C9446000C94A500D5
S11300300C9446000C9446000C9446000C94460024
S11300400C9446000C9446000C946B000C944600EF
S11300500C9446000C9446000C9446000C94460004
S11300600C9446000C94460011241FBECFEFD8E038
S1130070DEBFCDBF21E0A0E0B1E001C01D92A13000
S1130080B207E1F70E94B7000C94BC000C94000086
S11300901092C00080E98093C10086E08093C20082
S11300A01092C50087E68093C400089584B18260ED
S11300B084B984E89EE1909389008093880082E06B
S11300C080936F00E1E8F0E088E0808380818560C0
S11300D08083789408951F920F920FB60F92112483
S11300E08F939F938091C6008093000180910001BB
S11300F0813331F488E09DE39093890080938800F4
S113010080910001823331F483E89EE19093890069
S11301108093880080910001833331F481E49FE06F
S1130120909389008093880080910001843331F496
S11301308BE990E090938900809388009F918F9140
S11301400F900FBE0F901F9018951F920F920FB62D
S11301500F9211248F939F9395B182E0892785B9DB
S11301609F918F910F900FBE0F901F9018950E9432
S10F017056000E944800FFCFF894FFCF17
S9030000FC
