:100000000C9434000C9446000C9446000C9446006A
:100010000C9446000C9446000C9446000C94460048
:100020000C9446000C9446000C9446000C94690015
:100030000C9446000C9446000C9446000C94460028
:100040000C9446000C9446000C947B000C944600E3
:100050000C9446000C9446000C9446000C94460008
:100060000C9446000C94460011241FBECFEFD8E03C
:10007000DEBFCDBF21E0A0E0B1E001C01D92A13004
:10008000B207E1F70E94B5000C94BA000C9400008E
:100090001092C00080E98093C10086E08093C20086
:1000A0001092C50087E68093C400089582E084B969
:1000B00080936F00E1E8F0E088E0808380818560D4
:1000C000808389E09DE390938900809388007894F1
:1000D00008951F920F920FB60F9211248F939F9342
:1000E00095B182E0892785B99F918F910F900FBEBE
:1000F0000F901F9018951F920F920FB60F92112418
:100100008F939F938091C60080930001809100019E
:10011000813331F482E19AE79093890080938800DB
:1001200080910001823331F489E09DE3909389004E
:100130008093880080910001833331F484E89EE14C
:10014000909389008093880080910001843331F47A
:100150008CE990E090938900809388009F918F9123
:100160000F900FBE0F901F9018950E9448000E949C
:080170005600FFCFF894FFCF09
:00000001FF
