:100000000C9434000C943E000C943E000C943E0082
:100010000C943E000C943E000C943E000C943E0068
:100020000C943E000C943E000C943E000C943E0058
:100030000C943E000C943E000C943E000C943E0048
:100040000C943E000C943E000C943E000C943E0038
:100050000C943E000C943E000C943E000C943E0028
:100060000C943E000C943E0011241FBECFEFD8E04C
:10007000DEBFCDBF0E9456000C9486000C94000099
:1000800088E08AB983E28093B00081E08093B10078
:10009000089590E001969C0112F421503F4F84E6B0
:1000A000839F802D11248093B40008950E94400006
:1000B0002FEF83ED90E3215080409040E1F700C0A6
:1000C00000008FEF0E9449002FEF83ED90E3215055
:1000D00080409040E1F700C000008AE00E944900A3
:1000E0002FEF89E698E1215080409040E1F700C071
:1000F00000008CED0E9449002FEF89E698E1215025
:1001000080409040E1F700C00000E7CFF894FFCFB7
:00000001FF
